S0120000466C6173684C696768742E737265632C
S113000010C015C014C013C012C011C010C00FC05E
S11300100EC00DC08EC08FC090C091C0B6C091C03C
S113002092C011241FBECFE9CDBF11D0D9C0E8CFF3
S1130030369A3699FECF85B1089583B7826083BF1F
S11300408FB583608FBD8FB580628FBD0895CF93C8
S1130050DF93CDB7DD27C350CDBF81E687B984ECEC
S113006086B9EBDFB99A19BC82E090E0A5D08B8306
S11300708B818A838FEF89838B81873020F01B8269
S1130080E199FECF18C08B818F5F8B83E199FECFFE
S11300906B8182E090E097D082E089BD2FEF4BED39
S11300A085E0215040408040E1F700C000008A8193
S11300B08B83E199FECF6B8182E090E084D019BC00
S11300C08B818A831FE78AE0F82E02E0EE24EA940B
S11300D09FE3D92E2FE1C22E3FE0B32EA9DF90E09B
S11300E0A0E0B0E081599109A109B10989838B810C
S11300F08630A9F089818A3080F48B81882311F0BD
S11301001B820DC019BC9FEF2DEE42E091502040A0
S11301104040E1F700C0000002C08A818B83EB817C
S11301208E2F90E08730910580F5FC01E65FFF4F4C
S1130130099409BD2BC0B9BC29C0C9BC27C0D9BC0E
S113014025C0E9BC23C089816F2D2AD0898320E092
S113015030E0898190E082179307C4F009BD8FEFE6
S11301609BED45E0815090404040E1F700C0000025
S113017019BC8FEF9BED45E0815090404040E1F782
S113018000C000002F5F3F4FE4CF19BD8FEF9BE409
S11301902DE1815090402040E1F700C000009ECF47
S11301A0991B79E004C0991F961708F0961B881FC5
S11301B07A95C9F780950895E199FECF8EBBE09AB0
S11301C099278DB30895262FE199FECF1CBA8EBBD3
S11301D02DBB0FB6F894E29AE19A0FBE01960895EA
S10701E0F894FFCFBD
S9030000FC
