S0120000466C6173684C696768742E737265632C
S113000010C015C014C013C012C011C010C00FC05E
S11300100EC00DC0B2C0B3C001C1B3C0B4C0C9C02A
S1130020FAC011241FBECFE9CDBF50D054C1E8CFD0
S113003080E487B983E086B9379A369A3699FECF39
S113004084B195B1089597B18F71907E892B87B94A
S1130050369A3699FECF84B195B10895CF92DF9246
S1130060EF92FF920F931F93CF93DF931F92CDB71D
S1130070DD27082F10E0C12CD12C7601161751F082
S1130080802F6983E0DFC80ED91EE11CF11C1F5FBD
S11300906981F4CF212F30E040E050E0C701B60180
S11300A0E4D0C9010F90DF91CF911F910F91FF9080
S11300B0EF90DF90CF90089583B7826083BF8FB5B0
S11300C083608FBD8FB580628FBD0895CF93DF931A
S11300D0CDB7DD27C550CDBFABDFEEDFB99A19BC74
S11300E082E090E0E4D08D838D818C8381E090E088
S11300F0DED08B831A828FEF89838D81843020F048
S11301001D82E199FECF18C08D818F5F8D83E199A7
S1130110FECF6D8182E090E0D1D082E089BD2FEFE7
S11301203BED85E0215030408040E1F700C0000005
S11301308C818D83E199FECF6D8182E090E0BED009
S113014019BC9FEF2DEE32E0915020403040E1F792
S113015000C000008D818C831FE7FF24FA9484E1A2
S1130160E82E02E0ED818E2F90E08730910508F0B3
S113017055C0FC01E65FFF4F09940A8350C0EA8230
S11301804EC0FA824CC08FEF89BD9FEF26E731E065
S1130190915020403040E1F700C0000019BC9FEFAF
S11301A026E731E0915020403040E1F700C00000E4
S11301B0EBCF12E08B81823049F48FEF93EE27E589
S11301C0815090402040E1F700C000008B818436CC
S11301D049F43FEF83EE97E5315080409040E1F7DA
S11301E000C000008B8189BDE199FECF6B8181E065
S11301F090E064D08B818F5F8B838A81853608F091
S11302001B832FEF3BED85E0215030408040E1F728
S113021000C00000CFCF8B818A8301C01A838A81FA
S113022089BD8981823888F48A81833010F009BDC0
S113023001C019BC9FEF2BE43DE1915020403040B8
S1130240E1F700C000008A8189BD8FEF93E224EFBB
S113025030E08150904020403040D9F700C0000089
S113026065E081E0FBDE89837DCFA1E21A2EAA1B23
S1130270BB1BFD010DC0AA1FBB1FEE1FFF1FA21752
S1130280B307E407F50720F0A21BB30BE40BF50B4F
S1130290661F771F881F991F1A9469F760957095D8
S11302A0809590959B01AC01BD01CF010895E19922
S11302B0FECF8EBBE09A99278DB30895262FE1993E
S11302C0FECF1CBA8EBB2DBB0FB6F894E29AE19A0E
S10D02D00FBE01960895F894FFCFC5
S9030000FC
