S0120000466C6173684C696768742E737265632C
S113000010C015C014C013C012C011C010C00FC05E
S11300100EC00DC0BCC0BDC00BC1BDC0BEC0D3C0EE
S113002004C111241FBECFE9CDBF50D044C1E8CFD5
S113003080E487B983E086B9379A369A3699FECF39
S113004084B195B1089597B18F71907E892B87B94A
S1130050369A3699FECF84B195B10895CF92DF9246
S1130060EF92FF920F931F93CF93DF931F92CDB71D
S1130070DD27082F10E0C12CD12C7601161751F082
S1130080802F6983E0DFC80ED91EE11CF11C1F5FBD
S11300906981F4CF212F30E040E050E0C701B60180
S11300A0D4D0C9010F90DF91CF911F910F91FF9090
S11300B0EF90DF90CF90089583B7826083BF8FB5B0
S11300C083608FBD8FB580628FBD0895CF93DF931A
S11300D0CDB7DD27C550CDBFABDFEEDFB99A19BC74
S11300E082E090E0D4D08D838D818C8381E090E098
S11300F0CED08B831A8219828D81843020F01D82A8
S1130100E199FECF18C08D818F5F8D83E199FECF79
S11301106D8182E090E0C2D082E089BD2FEF3BED9B
S113012085E0215030408040E1F700C000008C8120
S11301308D83E199FECF6D8182E090E0AFD019BC50
S11301409FEF2DEE32E0915020403040E1F700C0A7
S113015000008D818C831FE70FEF84E1F82E92E07D
S1130160E92E65E081E07ADF89838981803B10F4A0
S11301701D8202C08C818D83ED818E2F90E08730AB
S1130180910508F055C0FC01E65FFF4F0994EA822F
S113019050C0FA824EC00A834CC08FEF89BD9FEFD6
S11301A026E731E0915020403040E1F700C00000E4
S11301B019BC9FEF26E731E0915020403040E1F731
S11301C000C00000EBCF12E08B81823049F48FEF46
S11301D093EE27E5815090402040E1F700C00000F5
S11301E08B81843649F43FEF83EE97E531508040AC
S11301F09040E1F700C000008B8189BDE199FECFFA
S11302006B8181E090E04AD08B818F5F8B838A8100
S1130210853608F01B832FEF3BED85E021503040FD
S11302208040E1F700C00000CFCF8B818A8301C0FA
S11302301A838A8189BD9FEF2BE732E991502040D0
S11302403040E1F700C000008CCFA1E21A2EAA1BB7
S1130250BB1BFD010DC0AA1FBB1FEE1FFF1FA21772
S1130260B307E407F50720F0A21BB30BE40BF50B6F
S1130270661F771F881F991F1A9469F760957095F8
S1130280809590959B01AC01BD01CF010895E19942
S1130290FECF8EBBE09A99278DB30895262FE1995E
S11302A0FECF1CBA8EBB2DBB0FB6F894E29AE19A2E
S10D02B00FBE01960895F894FFCFE5
S9030000FC
