S0120000466C6173684C696768742E737265632C
S113000010C015C014C013C012C011C010C00FC05E
S11300100EC00DC0BFC0C0C0C1C0C2C0C3C0D8C024
S113002009C111241FBECFE9CDBF4ED049C1E8CFCD
S113003080E487B983E086B9379A369A3699FECF39
S113004084B195B1089597B18F71907E892B87B94A
S1130050369A3699FECF84B195B10895CF92DF9246
S1130060EF92FF921F93CF93DF93182FD62F66231F
S113007071F0C0E0C12CD12C7601812FE4DFC80ED1
S1130080D91EE11CF11CCF5FCD13F7CF03C0C12CE7
S1130090D12C76012D2F30E040E050E0C701B601AD
S11300A0D9D0C901DF91CF911F91FF90EF90DF90DC
S11300B0CF90089583B7826083BF8FB583608FBD6F
S11300C08FB580628FBD0895CF93DF93CDB7DD27C1
S11300D0C550CDBFADDFEEDFB99A19BC82E090E028
S11300E0DBD08D838D818C8381E090E0D5D08B83B0
S11300F01A8219828D81843040F01D82E199FECFED
S11301006D8182E090E0CFD01CC08D818F5F8D83A4
S1130110E199FECF6D8182E090E0C5D082E089BD97
S11301202FEF3BED85E0215030408040E1F700C0E7
S113013000008C818D83E199FECF6D8182E090E097
S1130140B2D019BC9FEF2DEE32E0915020403040E8
S1130150E1F700C000008D818C831FE7EE24EA9450
S11301600F2EF4E1FF2EF02D02E065E081E076DF52
S113017089838981803B10F41D8202C08C818D8328
S11301808D8190E08730910508F057C0FC01E65F4F
S1130190FF4F09940A8352C0FA8250C01A834EC09A
S11301A0EA824CC08FEF89BD9FEF26E731E0915082
S11301B020403040E1F700C0000019BC9FEF26E763
S11301C031E0915020403040E1F700C00000EBCF17
S11301D012E08B81823049F48FEF93EE27E5815052
S11301E090402040E1F700C000008B81843649F440
S11301F03FEF83EE97E5315080409040E1F700C037
S113020000008B8189BDE199FECF6B8181E090E094
S11302104AD08B818F5F8B838A81853608F01B835C
S11302202FEF3BED85E0215030408040E1F700C0E6
S11302300000CFCF8B818A8301C01A838A8189BD54
S11302409FEF2BE732E9915020403040E1F700C0A6
S113025000008BCFA1E21A2EAA1BBB1BFD010DC00F
S1130260AA1FBB1FEE1FFF1FA217B307E407F50762
S113027020F0A21BB30BE40BF50B661F771F881F3E
S1130280991F1A9469F760957095809590959B01D4
S1130290AC01BD01CF010895E199FECF8EBBE09A78
S11302A099278DB30895262FE199FECF1CBA8EBBF2
S11302B02DBB0FB6F894E29AE19A0FBE0196089509
S10702C0F894FFCFDC
S9030000FC
